{
  "_format": "hh-sol-artifact-1",
  "contractName": "Dappcord",
  "sourceName": "contracts/Dappcord.sol",
  "abi": [
    {
      "inputs": [
        {
          "internalType": "string",
          "name": "_name",
          "type": "string"
        },
        {
          "internalType": "string",
          "name": "_symbol",
          "type": "string"
        }
      ],
      "stateMutability": "nonpayable",
      "type": "constructor"
    },
    {
      "anonymous": false,
      "inputs": [
        {
          "indexed": true,
          "internalType": "address",
          "name": "owner",
          "type": "address"
        },
        {
          "indexed": true,
          "internalType": "address",
          "name": "approved",
          "type": "address"
        },
        {
          "indexed": true,
          "internalType": "uint256",
          "name": "tokenId",
          "type": "uint256"
        }
      ],
      "name": "Approval",
      "type": "event"
    },
    {
      "anonymous": false,
      "inputs": [
        {
          "indexed": true,
          "internalType": "address",
          "name": "owner",
          "type": "address"
        },
        {
          "indexed": true,
          "internalType": "address",
          "name": "operator",
          "type": "address"
        },
        {
          "indexed": false,
          "internalType": "bool",
          "name": "approved",
          "type": "bool"
        }
      ],
      "name": "ApprovalForAll",
      "type": "event"
    },
    {
      "anonymous": false,
      "inputs": [
        {
          "indexed": true,
          "internalType": "address",
          "name": "from",
          "type": "address"
        },
        {
          "indexed": true,
          "internalType": "address",
          "name": "to",
          "type": "address"
        },
        {
          "indexed": true,
          "internalType": "uint256",
          "name": "tokenId",
          "type": "uint256"
        }
      ],
      "name": "Transfer",
      "type": "event"
    },
    {
      "inputs": [
        {
          "internalType": "address",
          "name": "to",
          "type": "address"
        },
        {
          "internalType": "uint256",
          "name": "tokenId",
          "type": "uint256"
        }
      ],
      "name": "approve",
      "outputs": [],
      "stateMutability": "nonpayable",
      "type": "function"
    },
    {
      "inputs": [
        {
          "internalType": "address",
          "name": "owner",
          "type": "address"
        }
      ],
      "name": "balanceOf",
      "outputs": [
        {
          "internalType": "uint256",
          "name": "",
          "type": "uint256"
        }
      ],
      "stateMutability": "view",
      "type": "function"
    },
    {
      "inputs": [
        {
          "internalType": "uint256",
          "name": "",
          "type": "uint256"
        }
      ],
      "name": "channels",
      "outputs": [
        {
          "internalType": "uint256",
          "name": "id",
          "type": "uint256"
        },
        {
          "internalType": "string",
          "name": "name",
          "type": "string"
        },
        {
          "internalType": "uint256",
          "name": "cost",
          "type": "uint256"
        }
      ],
      "stateMutability": "view",
      "type": "function"
    },
    {
      "inputs": [
        {
          "internalType": "string",
          "name": "_name",
          "type": "string"
        },
        {
          "internalType": "uint256",
          "name": "_cost",
          "type": "uint256"
        }
      ],
      "name": "createChannel",
      "outputs": [],
      "stateMutability": "nonpayable",
      "type": "function"
    },
    {
      "inputs": [
        {
          "internalType": "uint256",
          "name": "tokenId",
          "type": "uint256"
        }
      ],
      "name": "getApproved",
      "outputs": [
        {
          "internalType": "address",
          "name": "",
          "type": "address"
        }
      ],
      "stateMutability": "view",
      "type": "function"
    },
    {
      "inputs": [
        {
          "internalType": "uint256",
          "name": "_id",
          "type": "uint256"
        }
      ],
      "name": "getChannel",
      "outputs": [
        {
          "components": [
            {
              "internalType": "uint256",
              "name": "id",
              "type": "uint256"
            },
            {
              "internalType": "string",
              "name": "name",
              "type": "string"
            },
            {
              "internalType": "uint256",
              "name": "cost",
              "type": "uint256"
            }
          ],
          "internalType": "struct Dappcord.Channel",
          "name": "",
          "type": "tuple"
        }
      ],
      "stateMutability": "view",
      "type": "function"
    },
    {
      "inputs": [
        {
          "internalType": "uint256",
          "name": "",
          "type": "uint256"
        },
        {
          "internalType": "address",
          "name": "",
          "type": "address"
        }
      ],
      "name": "hasJoined",
      "outputs": [
        {
          "internalType": "bool",
          "name": "",
          "type": "bool"
        }
      ],
      "stateMutability": "view",
      "type": "function"
    },
    {
      "inputs": [
        {
          "internalType": "address",
          "name": "owner",
          "type": "address"
        },
        {
          "internalType": "address",
          "name": "operator",
          "type": "address"
        }
      ],
      "name": "isApprovedForAll",
      "outputs": [
        {
          "internalType": "bool",
          "name": "",
          "type": "bool"
        }
      ],
      "stateMutability": "view",
      "type": "function"
    },
    {
      "inputs": [
        {
          "internalType": "uint256",
          "name": "_id",
          "type": "uint256"
        }
      ],
      "name": "mint",
      "outputs": [],
      "stateMutability": "payable",
      "type": "function"
    },
    {
      "inputs": [],
      "name": "name",
      "outputs": [
        {
          "internalType": "string",
          "name": "",
          "type": "string"
        }
      ],
      "stateMutability": "view",
      "type": "function"
    },
    {
      "inputs": [],
      "name": "owner",
      "outputs": [
        {
          "internalType": "address",
          "name": "",
          "type": "address"
        }
      ],
      "stateMutability": "view",
      "type": "function"
    },
    {
      "inputs": [
        {
          "internalType": "uint256",
          "name": "tokenId",
          "type": "uint256"
        }
      ],
      "name": "ownerOf",
      "outputs": [
        {
          "internalType": "address",
          "name": "",
          "type": "address"
        }
      ],
      "stateMutability": "view",
      "type": "function"
    },
    {
      "inputs": [
        {
          "internalType": "address",
          "name": "from",
          "type": "address"
        },
        {
          "internalType": "address",
          "name": "to",
          "type": "address"
        },
        {
          "internalType": "uint256",
          "name": "tokenId",
          "type": "uint256"
        }
      ],
      "name": "safeTransferFrom",
      "outputs": [],
      "stateMutability": "nonpayable",
      "type": "function"
    },
    {
      "inputs": [
        {
          "internalType": "address",
          "name": "from",
          "type": "address"
        },
        {
          "internalType": "address",
          "name": "to",
          "type": "address"
        },
        {
          "internalType": "uint256",
          "name": "tokenId",
          "type": "uint256"
        },
        {
          "internalType": "bytes",
          "name": "data",
          "type": "bytes"
        }
      ],
      "name": "safeTransferFrom",
      "outputs": [],
      "stateMutability": "nonpayable",
      "type": "function"
    },
    {
      "inputs": [
        {
          "internalType": "address",
          "name": "operator",
          "type": "address"
        },
        {
          "internalType": "bool",
          "name": "approved",
          "type": "bool"
        }
      ],
      "name": "setApprovalForAll",
      "outputs": [],
      "stateMutability": "nonpayable",
      "type": "function"
    },
    {
      "inputs": [
        {
          "internalType": "bytes4",
          "name": "interfaceId",
          "type": "bytes4"
        }
      ],
      "name": "supportsInterface",
      "outputs": [
        {
          "internalType": "bool",
          "name": "",
          "type": "bool"
        }
      ],
      "stateMutability": "view",
      "type": "function"
    },
    {
      "inputs": [],
      "name": "symbol",
      "outputs": [
        {
          "internalType": "string",
          "name": "",
          "type": "string"
        }
      ],
      "stateMutability": "view",
      "type": "function"
    },
    {
      "inputs": [
        {
          "internalType": "uint256",
          "name": "tokenId",
          "type": "uint256"
        }
      ],
      "name": "tokenURI",
      "outputs": [
        {
          "internalType": "string",
          "name": "",
          "type": "string"
        }
      ],
      "stateMutability": "view",
      "type": "function"
    },
    {
      "inputs": [],
      "name": "totalChannels",
      "outputs": [
        {
          "internalType": "uint256",
          "name": "",
          "type": "uint256"
        }
      ],
      "stateMutability": "view",
      "type": "function"
    },
    {
      "inputs": [],
      "name": "totalSupply",
      "outputs": [
        {
          "internalType": "uint256",
          "name": "",
          "type": "uint256"
        }
      ],
      "stateMutability": "view",
      "type": "function"
    },
    {
      "inputs": [
        {
          "internalType": "address",
          "name": "from",
          "type": "address"
        },
        {
          "internalType": "address",
          "name": "to",
          "type": "address"
        },
        {
          "internalType": "uint256",
          "name": "tokenId",
          "type": "uint256"
        }
      ],
      "name": "transferFrom",
      "outputs": [],
      "stateMutability": "nonpayable",
      "type": "function"
    },
    {
      "inputs": [],
      "name": "withdraw",
      "outputs": [],
      "stateMutability": "nonpayable",
      "type": "function"
    }
  ],
  "bytecode": "0x6080604052600060065560006007553480156200001b57600080fd5b5060405162003a5238038062003a52833981810160405281019062000041919062000245565b8181816000908162000054919062000515565b50806001908162000066919062000515565b50505033600860006101000a81548173ffffffffffffffffffffffffffffffffffffffff021916908373ffffffffffffffffffffffffffffffffffffffff1602179055505050620005fc565b6000604051905090565b600080fd5b600080fd5b600080fd5b600080fd5b6000601f19601f8301169050919050565b7f4e487b7100000000000000000000000000000000000000000000000000000000600052604160045260246000fd5b6200011b82620000d0565b810181811067ffffffffffffffff821117156200013d576200013c620000e1565b5b80604052505050565b600062000152620000b2565b905062000160828262000110565b919050565b600067ffffffffffffffff821115620001835762000182620000e1565b5b6200018e82620000d0565b9050602081019050919050565b60005b83811015620001bb5780820151818401526020810190506200019e565b60008484015250505050565b6000620001de620001d88462000165565b62000146565b905082815260208101848484011115620001fd57620001fc620000cb565b5b6200020a8482856200019b565b509392505050565b600082601f8301126200022a5762000229620000c6565b5b81516200023c848260208601620001c7565b91505092915050565b600080604083850312156200025f576200025e620000bc565b5b600083015167ffffffffffffffff81111562000280576200027f620000c1565b5b6200028e8582860162000212565b925050602083015167ffffffffffffffff811115620002b257620002b1620000c1565b5b620002c08582860162000212565b9150509250929050565b600081519050919050565b7f4e487b7100000000000000000000000000000000000000000000000000000000600052602260045260246000fd5b600060028204905060018216806200031d57607f821691505b602082108103620003335762000332620002d5565b5b50919050565b60008190508160005260206000209050919050565b60006020601f8301049050919050565b600082821b905092915050565b6000600883026200039d7fffffffffffffffffffffffffffffffffffffffffffffffffffffffffffffffff826200035e565b620003a986836200035e565b95508019841693508086168417925050509392505050565b6000819050919050565b6000819050919050565b6000620003f6620003f0620003ea84620003c1565b620003cb565b620003c1565b9050919050565b6000819050919050565b6200041283620003d5565b6200042a6200042182620003fd565b8484546200036b565b825550505050565b600090565b6200044162000432565b6200044e81848462000407565b505050565b5b8181101562000476576200046a60008262000437565b60018101905062000454565b5050565b601f821115620004c5576200048f8162000339565b6200049a846200034e565b81016020851015620004aa578190505b620004c2620004b9856200034e565b83018262000453565b50505b505050565b600082821c905092915050565b6000620004ea60001984600802620004ca565b1980831691505092915050565b6000620005058383620004d7565b9150826002028217905092915050565b6200052082620002ca565b67ffffffffffffffff8111156200053c576200053b620000e1565b5b62000548825462000304565b620005558282856200047a565b600060209050601f8311600181146200058d576000841562000578578287015190505b620005848582620004f7565b865550620005f4565b601f1984166200059d8662000339565b60005b82811015620005c757848901518255600182019150602085019450602081019050620005a0565b86831015620005e75784890151620005e3601f891682620004d7565b8355505b6001600288020188555050505b505050505050565b613446806200060c6000396000f3fe6080604052600436106101355760003560e01c806370a08231116100ab578063a14865cd1161006f578063a14865cd1461042d578063a22cb46514610456578063b88d4fde1461047f578063c87b56dd146104a8578063e5949b5d146104e5578063e985e9c51461052457610135565b806370a08231146103535780637734a9f6146103905780638da5cb5b146103bb57806395d89b41146103e6578063a0712d681461041157610135565b806318160ddd116100fd57806318160ddd1461024557806323b872dd146102705780633ccfd60b1461029957806342842e0e146102b05780636352211e146102d9578063681947191461031657610135565b806301ffc9a71461013a57806306fdde0314610177578063081812fc146101a2578063095ea7b3146101df57806310df54a014610208575b600080fd5b34801561014657600080fd5b50610161600480360381019061015c91906120ed565b610561565b60405161016e9190612135565b60405180910390f35b34801561018357600080fd5b5061018c610643565b60405161019991906121e0565b60405180910390f35b3480156101ae57600080fd5b506101c960048036038101906101c49190612238565b6106d5565b6040516101d691906122a6565b60405180910390f35b3480156101eb57600080fd5b50610206600480360381019061020191906122ed565b61071b565b005b34801561021457600080fd5b5061022f600480360381019061022a9190612238565b610832565b60405161023c91906123d6565b60405180910390f35b34801561025157600080fd5b5061025a610905565b6040516102679190612407565b60405180910390f35b34801561027c57600080fd5b5061029760048036038101906102929190612422565b61090b565b005b3480156102a557600080fd5b506102ae61096b565b005b3480156102bc57600080fd5b506102d760048036038101906102d29190612422565b610a96565b005b3480156102e557600080fd5b5061030060048036038101906102fb9190612238565b610ab6565b60405161030d91906122a6565b60405180910390f35b34801561032257600080fd5b5061033d60048036038101906103389190612475565b610b3c565b60405161034a9190612135565b60405180910390f35b34801561035f57600080fd5b5061037a600480360381019061037591906124b5565b610b6b565b6040516103879190612407565b60405180910390f35b34801561039c57600080fd5b506103a5610c22565b6040516103b29190612407565b60405180910390f35b3480156103c757600080fd5b506103d0610c28565b6040516103dd91906122a6565b60405180910390f35b3480156103f257600080fd5b506103fb610c4e565b60405161040891906121e0565b60405180910390f35b61042b60048036038101906104269190612238565b610ce0565b005b34801561043957600080fd5b50610454600480360381019061044f9190612617565b610e1d565b005b34801561046257600080fd5b5061047d6004803603810190610478919061269f565b610f4c565b005b34801561048b57600080fd5b506104a660048036038101906104a19190612780565b610f62565b005b3480156104b457600080fd5b506104cf60048036038101906104ca9190612238565b610fc4565b6040516104dc91906121e0565b60405180910390f35b3480156104f157600080fd5b5061050c60048036038101906105079190612238565b61102c565b60405161051b93929190612803565b60405180910390f35b34801561053057600080fd5b5061054b60048036038101906105469190612841565b6110de565b6040516105589190612135565b60405180910390f35b60007f80ac58cd000000000000000000000000000000000000000000000000000000007bffffffffffffffffffffffffffffffffffffffffffffffffffffffff1916827bffffffffffffffffffffffffffffffffffffffffffffffffffffffff1916148061062c57507f5b5e139f000000000000000000000000000000000000000000000000000000007bffffffffffffffffffffffffffffffffffffffffffffffffffffffff1916827bffffffffffffffffffffffffffffffffffffffffffffffffffffffff1916145b8061063c575061063b82611172565b5b9050919050565b606060008054610652906128b0565b80601f016020809104026020016040519081016040528092919081815260200182805461067e906128b0565b80156106cb5780601f106106a0576101008083540402835291602001916106cb565b820191906000526020600020905b8154815290600101906020018083116106ae57829003601f168201915b5050505050905090565b60006106e0826111dc565b6004600083815260200190815260200160002060009054906101000a900473ffffffffffffffffffffffffffffffffffffffff169050919050565b600061072682610ab6565b90508073ffffffffffffffffffffffffffffffffffffffff168373ffffffffffffffffffffffffffffffffffffffff1603610796576040517f08c379a000000000000000000000000000000000000000000000000000000000815260040161078d90612953565b60405180910390fd5b8073ffffffffffffffffffffffffffffffffffffffff166107b5611227565b73ffffffffffffffffffffffffffffffffffffffff1614806107e457506107e3816107de611227565b6110de565b5b610823576040517f08c379a000000000000000000000000000000000000000000000000000000000815260040161081a906129e5565b60405180910390fd5b61082d838361122f565b505050565b61083a612060565b6009600083815260200190815260200160002060405180606001604052908160008201548152602001600182018054610872906128b0565b80601f016020809104026020016040519081016040528092919081815260200182805461089e906128b0565b80156108eb5780601f106108c0576101008083540402835291602001916108eb565b820191906000526020600020905b8154815290600101906020018083116108ce57829003601f168201915b505050505081526020016002820154815250509050919050565b60065481565b61091c610916611227565b826112e8565b61095b576040517f08c379a000000000000000000000000000000000000000000000000000000000815260040161095290612a77565b60405180910390fd5b61096683838361137d565b505050565b600860009054906101000a900473ffffffffffffffffffffffffffffffffffffffff1673ffffffffffffffffffffffffffffffffffffffff163373ffffffffffffffffffffffffffffffffffffffff16146109c557600080fd5b6000600860009054906101000a900473ffffffffffffffffffffffffffffffffffffffff1673ffffffffffffffffffffffffffffffffffffffff1647604051610a0d90612ac8565b60006040518083038185875af1925050503d8060008114610a4a576040519150601f19603f3d011682016040523d82523d6000602084013e610a4f565b606091505b5050905080610a93576040517f08c379a0000000000000000000000000000000000000000000000000000000008152600401610a8a90612b29565b60405180910390fd5b50565b610ab183838360405180602001604052806000815250610f62565b505050565b600080610ac283611676565b9050600073ffffffffffffffffffffffffffffffffffffffff168173ffffffffffffffffffffffffffffffffffffffff1603610b33576040517f08c379a0000000000000000000000000000000000000000000000000000000008152600401610b2a90612b95565b60405180910390fd5b80915050919050565b600a6020528160005260406000206020528060005260406000206000915091509054906101000a900460ff1681565b60008073ffffffffffffffffffffffffffffffffffffffff168273ffffffffffffffffffffffffffffffffffffffff1603610bdb576040517f08c379a0000000000000000000000000000000000000000000000000000000008152600401610bd290612c27565b60405180910390fd5b600360008373ffffffffffffffffffffffffffffffffffffffff1673ffffffffffffffffffffffffffffffffffffffff168152602001908152602001600020549050919050565b60075481565b600860009054906101000a900473ffffffffffffffffffffffffffffffffffffffff1681565b606060018054610c5d906128b0565b80601f0160208091040260200160405190810160405280929190818152602001828054610c89906128b0565b8015610cd65780601f10610cab57610100808354040283529160200191610cd6565b820191906000526020600020905b815481529060010190602001808311610cb957829003601f168201915b5050505050905090565b60008103610ced57600080fd5b600754811115610cfc57600080fd5b60001515600a600083815260200190815260200160002060003373ffffffffffffffffffffffffffffffffffffffff1673ffffffffffffffffffffffffffffffffffffffff16815260200190815260200160002060009054906101000a900460ff16151514610d6a57600080fd5b6009600082815260200190815260200160002060020154341015610d8d57600080fd5b6001600a600083815260200190815260200160002060003373ffffffffffffffffffffffffffffffffffffffff1673ffffffffffffffffffffffffffffffffffffffff16815260200190815260200160002060006101000a81548160ff02191690831515021790555060066000815480929190610e0990612c76565b9190505550610e1a336006546116b3565b50565b600860009054906101000a900473ffffffffffffffffffffffffffffffffffffffff1673ffffffffffffffffffffffffffffffffffffffff163373ffffffffffffffffffffffffffffffffffffffff1614610e7757600080fd5b600860009054906101000a900473ffffffffffffffffffffffffffffffffffffffff1673ffffffffffffffffffffffffffffffffffffffff163373ffffffffffffffffffffffffffffffffffffffff1614610ed157600080fd5b60076000815480929190610ee490612c76565b91905055506040518060600160405280600754815260200183815260200182815250600960006007548152602001908152602001600020600082015181600001556020820151816001019081610f3a9190612e6a565b50604082015181600201559050505050565b610f5e610f57611227565b83836116d1565b5050565b610f73610f6d611227565b836112e8565b610fb2576040517f08c379a0000000000000000000000000000000000000000000000000000000008152600401610fa990612a77565b60405180910390fd5b610fbe8484848461183d565b50505050565b6060610fcf826111dc565b6000610fd9611899565b90506000815111610ff95760405180602001604052806000815250611024565b80611003846118b0565b604051602001611014929190612f78565b6040516020818303038152906040525b915050919050565b6009602052806000526040600020600091509050806000015490806001018054611055906128b0565b80601f0160208091040260200160405190810160405280929190818152602001828054611081906128b0565b80156110ce5780601f106110a3576101008083540402835291602001916110ce565b820191906000526020600020905b8154815290600101906020018083116110b157829003601f168201915b5050505050908060020154905083565b6000600560008473ffffffffffffffffffffffffffffffffffffffff1673ffffffffffffffffffffffffffffffffffffffff16815260200190815260200160002060008373ffffffffffffffffffffffffffffffffffffffff1673ffffffffffffffffffffffffffffffffffffffff16815260200190815260200160002060009054906101000a900460ff16905092915050565b60007f01ffc9a7000000000000000000000000000000000000000000000000000000007bffffffffffffffffffffffffffffffffffffffffffffffffffffffff1916827bffffffffffffffffffffffffffffffffffffffffffffffffffffffff1916149050919050565b6111e58161197e565b611224576040517f08c379a000000000000000000000000000000000000000000000000000000000815260040161121b90612b95565b60405180910390fd5b50565b600033905090565b816004600083815260200190815260200160002060006101000a81548173ffffffffffffffffffffffffffffffffffffffff021916908373ffffffffffffffffffffffffffffffffffffffff160217905550808273ffffffffffffffffffffffffffffffffffffffff166112a283610ab6565b73ffffffffffffffffffffffffffffffffffffffff167f8c5be1e5ebec7d5bd14f71427d1e84f3dd0314c0f7b2291e5b200ac8c7c3b92560405160405180910390a45050565b6000806112f483610ab6565b90508073ffffffffffffffffffffffffffffffffffffffff168473ffffffffffffffffffffffffffffffffffffffff161480611336575061133581856110de565b5b8061137457508373ffffffffffffffffffffffffffffffffffffffff1661135c846106d5565b73ffffffffffffffffffffffffffffffffffffffff16145b91505092915050565b8273ffffffffffffffffffffffffffffffffffffffff1661139d82610ab6565b73ffffffffffffffffffffffffffffffffffffffff16146113f3576040517f08c379a00000000000000000000000000000000000000000000000000000000081526004016113ea9061300e565b60405180910390fd5b600073ffffffffffffffffffffffffffffffffffffffff168273ffffffffffffffffffffffffffffffffffffffff1603611462576040517f08c379a0000000000000000000000000000000000000000000000000000000008152600401611459906130a0565b60405180910390fd5b61146f83838360016119bf565b8273ffffffffffffffffffffffffffffffffffffffff1661148f82610ab6565b73ffffffffffffffffffffffffffffffffffffffff16146114e5576040517f08c379a00000000000000000000000000000000000000000000000000000000081526004016114dc9061300e565b60405180910390fd5b6004600082815260200190815260200160002060006101000a81549073ffffffffffffffffffffffffffffffffffffffff02191690556001600360008573ffffffffffffffffffffffffffffffffffffffff1673ffffffffffffffffffffffffffffffffffffffff168152602001908152602001600020600082825403925050819055506001600360008473ffffffffffffffffffffffffffffffffffffffff1673ffffffffffffffffffffffffffffffffffffffff16815260200190815260200160002060008282540192505081905550816002600083815260200190815260200160002060006101000a81548173ffffffffffffffffffffffffffffffffffffffff021916908373ffffffffffffffffffffffffffffffffffffffff160217905550808273ffffffffffffffffffffffffffffffffffffffff168473ffffffffffffffffffffffffffffffffffffffff167fddf252ad1be2c89b69c2b068fc378daa952ba7f163c4a11628f55a4df523b3ef60405160405180910390a46116718383836001611ae5565b505050565b60006002600083815260200190815260200160002060009054906101000a900473ffffffffffffffffffffffffffffffffffffffff169050919050565b6116cd828260405180602001604052806000815250611aeb565b5050565b8173ffffffffffffffffffffffffffffffffffffffff168373ffffffffffffffffffffffffffffffffffffffff160361173f576040517f08c379a00000000000000000000000000000000000000000000000000000000081526004016117369061310c565b60405180910390fd5b80600560008573ffffffffffffffffffffffffffffffffffffffff1673ffffffffffffffffffffffffffffffffffffffff16815260200190815260200160002060008473ffffffffffffffffffffffffffffffffffffffff1673ffffffffffffffffffffffffffffffffffffffff16815260200190815260200160002060006101000a81548160ff0219169083151502179055508173ffffffffffffffffffffffffffffffffffffffff168373ffffffffffffffffffffffffffffffffffffffff167f17307eab39ab6107e8899845ad3d59bd9653f200f220920489ca2b5937696c31836040516118309190612135565b60405180910390a3505050565b61184884848461137d565b61185484848484611b46565b611893576040517f08c379a000000000000000000000000000000000000000000000000000000000815260040161188a9061319e565b60405180910390fd5b50505050565b606060405180602001604052806000815250905090565b6060600060016118bf84611ccd565b01905060008167ffffffffffffffff8111156118de576118dd6124ec565b5b6040519080825280601f01601f1916602001820160405280156119105781602001600182028036833780820191505090505b509050600082602001820190505b600115611973578080600190039150507f3031323334353637383961626364656600000000000000000000000000000000600a86061a8153600a8581611967576119666131be565b5b0494506000850361191e575b819350505050919050565b60008073ffffffffffffffffffffffffffffffffffffffff166119a083611676565b73ffffffffffffffffffffffffffffffffffffffff1614159050919050565b6001811115611adf57600073ffffffffffffffffffffffffffffffffffffffff168473ffffffffffffffffffffffffffffffffffffffff1614611a535780600360008673ffffffffffffffffffffffffffffffffffffffff1673ffffffffffffffffffffffffffffffffffffffff1681526020019081526020016000206000828254611a4b91906131ed565b925050819055505b600073ffffffffffffffffffffffffffffffffffffffff168373ffffffffffffffffffffffffffffffffffffffff1614611ade5780600360008573ffffffffffffffffffffffffffffffffffffffff1673ffffffffffffffffffffffffffffffffffffffff1681526020019081526020016000206000828254611ad69190613221565b925050819055505b5b50505050565b50505050565b611af58383611e20565b611b026000848484611b46565b611b41576040517f08c379a0000000000000000000000000000000000000000000000000000000008152600401611b389061319e565b60405180910390fd5b505050565b6000611b678473ffffffffffffffffffffffffffffffffffffffff1661203d565b15611cc0578373ffffffffffffffffffffffffffffffffffffffff1663150b7a02611b90611227565b8786866040518563ffffffff1660e01b8152600401611bb294939291906132aa565b6020604051808303816000875af1925050508015611bee57506040513d601f19601f82011682018060405250810190611beb919061330b565b60015b611c70573d8060008114611c1e576040519150601f19603f3d011682016040523d82523d6000602084013e611c23565b606091505b506000815103611c68576040517f08c379a0000000000000000000000000000000000000000000000000000000008152600401611c5f9061319e565b60405180910390fd5b805181602001fd5b63150b7a0260e01b7bffffffffffffffffffffffffffffffffffffffffffffffffffffffff1916817bffffffffffffffffffffffffffffffffffffffffffffffffffffffff191614915050611cc5565b600190505b949350505050565b600080600090507a184f03e93ff9f4daa797ed6e38ed64bf6a1f0100000000000000008310611d2b577a184f03e93ff9f4daa797ed6e38ed64bf6a1f0100000000000000008381611d2157611d206131be565b5b0492506040810190505b6d04ee2d6d415b85acef81000000008310611d68576d04ee2d6d415b85acef81000000008381611d5e57611d5d6131be565b5b0492506020810190505b662386f26fc100008310611d9757662386f26fc100008381611d8d57611d8c6131be565b5b0492506010810190505b6305f5e1008310611dc0576305f5e1008381611db657611db56131be565b5b0492506008810190505b6127108310611de5576127108381611ddb57611dda6131be565b5b0492506004810190505b60648310611e085760648381611dfe57611dfd6131be565b5b0492506002810190505b600a8310611e17576001810190505b80915050919050565b600073ffffffffffffffffffffffffffffffffffffffff168273ffffffffffffffffffffffffffffffffffffffff1603611e8f576040517f08c379a0000000000000000000000000000000000000000000000000000000008152600401611e8690613384565b60405180910390fd5b611e988161197e565b15611ed8576040517f08c379a0000000000000000000000000000000000000000000000000000000008152600401611ecf906133f0565b60405180910390fd5b611ee66000838360016119bf565b611eef8161197e565b15611f2f576040517f08c379a0000000000000000000000000000000000000000000000000000000008152600401611f26906133f0565b60405180910390fd5b6001600360008473ffffffffffffffffffffffffffffffffffffffff1673ffffffffffffffffffffffffffffffffffffffff16815260200190815260200160002060008282540192505081905550816002600083815260200190815260200160002060006101000a81548173ffffffffffffffffffffffffffffffffffffffff021916908373ffffffffffffffffffffffffffffffffffffffff160217905550808273ffffffffffffffffffffffffffffffffffffffff16600073ffffffffffffffffffffffffffffffffffffffff167fddf252ad1be2c89b69c2b068fc378daa952ba7f163c4a11628f55a4df523b3ef60405160405180910390a4612039600083836001611ae5565b5050565b6000808273ffffffffffffffffffffffffffffffffffffffff163b119050919050565b60405180606001604052806000815260200160608152602001600081525090565b6000604051905090565b600080fd5b600080fd5b60007fffffffff0000000000000000000000000000000000000000000000000000000082169050919050565b6120ca81612095565b81146120d557600080fd5b50565b6000813590506120e7816120c1565b92915050565b6000602082840312156121035761210261208b565b5b6000612111848285016120d8565b91505092915050565b60008115159050919050565b61212f8161211a565b82525050565b600060208201905061214a6000830184612126565b92915050565b600081519050919050565b600082825260208201905092915050565b60005b8381101561218a57808201518184015260208101905061216f565b60008484015250505050565b6000601f19601f8301169050919050565b60006121b282612150565b6121bc818561215b565b93506121cc81856020860161216c565b6121d581612196565b840191505092915050565b600060208201905081810360008301526121fa81846121a7565b905092915050565b6000819050919050565b61221581612202565b811461222057600080fd5b50565b6000813590506122328161220c565b92915050565b60006020828403121561224e5761224d61208b565b5b600061225c84828501612223565b91505092915050565b600073ffffffffffffffffffffffffffffffffffffffff82169050919050565b600061229082612265565b9050919050565b6122a081612285565b82525050565b60006020820190506122bb6000830184612297565b92915050565b6122ca81612285565b81146122d557600080fd5b50565b6000813590506122e7816122c1565b92915050565b600080604083850312156123045761230361208b565b5b6000612312858286016122d8565b925050602061232385828601612223565b9150509250929050565b61233681612202565b82525050565b600082825260208201905092915050565b600061235882612150565b612362818561233c565b935061237281856020860161216c565b61237b81612196565b840191505092915050565b600060608301600083015161239e600086018261232d565b50602083015184820360208601526123b6828261234d565b91505060408301516123cb604086018261232d565b508091505092915050565b600060208201905081810360008301526123f08184612386565b905092915050565b61240181612202565b82525050565b600060208201905061241c60008301846123f8565b92915050565b60008060006060848603121561243b5761243a61208b565b5b6000612449868287016122d8565b935050602061245a868287016122d8565b925050604061246b86828701612223565b9150509250925092565b6000806040838503121561248c5761248b61208b565b5b600061249a85828601612223565b92505060206124ab858286016122d8565b9150509250929050565b6000602082840312156124cb576124ca61208b565b5b60006124d9848285016122d8565b91505092915050565b600080fd5b600080fd5b7f4e487b7100000000000000000000000000000000000000000000000000000000600052604160045260246000fd5b61252482612196565b810181811067ffffffffffffffff82111715612543576125426124ec565b5b80604052505050565b6000612556612081565b9050612562828261251b565b919050565b600067ffffffffffffffff821115612582576125816124ec565b5b61258b82612196565b9050602081019050919050565b82818337600083830152505050565b60006125ba6125b584612567565b61254c565b9050828152602081018484840111156125d6576125d56124e7565b5b6125e1848285612598565b509392505050565b600082601f8301126125fe576125fd6124e2565b5b813561260e8482602086016125a7565b91505092915050565b6000806040838503121561262e5761262d61208b565b5b600083013567ffffffffffffffff81111561264c5761264b612090565b5b612658858286016125e9565b925050602061266985828601612223565b9150509250929050565b61267c8161211a565b811461268757600080fd5b50565b60008135905061269981612673565b92915050565b600080604083850312156126b6576126b561208b565b5b60006126c4858286016122d8565b92505060206126d58582860161268a565b9150509250929050565b600067ffffffffffffffff8211156126fa576126f96124ec565b5b61270382612196565b9050602081019050919050565b600061272361271e846126df565b61254c565b90508281526020810184848401111561273f5761273e6124e7565b5b61274a848285612598565b509392505050565b600082601f830112612767576127666124e2565b5b8135612777848260208601612710565b91505092915050565b6000806000806080858703121561279a5761279961208b565b5b60006127a8878288016122d8565b94505060206127b9878288016122d8565b93505060406127ca87828801612223565b925050606085013567ffffffffffffffff8111156127eb576127ea612090565b5b6127f787828801612752565b91505092959194509250565b600060608201905061281860008301866123f8565b818103602083015261282a81856121a7565b905061283960408301846123f8565b949350505050565b600080604083850312156128585761285761208b565b5b6000612866858286016122d8565b9250506020612877858286016122d8565b9150509250929050565b7f4e487b7100000000000000000000000000000000000000000000000000000000600052602260045260246000fd5b600060028204905060018216806128c857607f821691505b6020821081036128db576128da612881565b5b50919050565b7f4552433732313a20617070726f76616c20746f2063757272656e74206f776e6560008201527f7200000000000000000000000000000000000000000000000000000000000000602082015250565b600061293d60218361215b565b9150612948826128e1565b604082019050919050565b6000602082019050818103600083015261296c81612930565b9050919050565b7f4552433732313a20617070726f76652063616c6c6572206973206e6f7420746f60008201527f6b656e206f776e6572206f7220617070726f76656420666f7220616c6c000000602082015250565b60006129cf603d8361215b565b91506129da82612973565b604082019050919050565b600060208201905081810360008301526129fe816129c2565b9050919050565b7f4552433732313a2063616c6c6572206973206e6f7420746f6b656e206f776e6560008201527f72206f7220617070726f76656400000000000000000000000000000000000000602082015250565b6000612a61602d8361215b565b9150612a6c82612a05565b604082019050919050565b60006020820190508181036000830152612a9081612a54565b9050919050565b600081905092915050565b50565b6000612ab2600083612a97565b9150612abd82612aa2565b600082019050919050565b6000612ad382612aa5565b9150819050919050565b7f5769746864726177616c206661696c6564000000000000000000000000000000600082015250565b6000612b1360118361215b565b9150612b1e82612add565b602082019050919050565b60006020820190508181036000830152612b4281612b06565b9050919050565b7f4552433732313a20696e76616c696420746f6b656e2049440000000000000000600082015250565b6000612b7f60188361215b565b9150612b8a82612b49565b602082019050919050565b60006020820190508181036000830152612bae81612b72565b9050919050565b7f4552433732313a2061646472657373207a65726f206973206e6f74206120766160008201527f6c6964206f776e65720000000000000000000000000000000000000000000000602082015250565b6000612c1160298361215b565b9150612c1c82612bb5565b604082019050919050565b60006020820190508181036000830152612c4081612c04565b9050919050565b7f4e487b7100000000000000000000000000000000000000000000000000000000600052601160045260246000fd5b6000612c8182612202565b91507fffffffffffffffffffffffffffffffffffffffffffffffffffffffffffffffff8203612cb357612cb2612c47565b5b600182019050919050565b60008190508160005260206000209050919050565b60006020601f8301049050919050565b600082821b905092915050565b600060088302612d207fffffffffffffffffffffffffffffffffffffffffffffffffffffffffffffffff82612ce3565b612d2a8683612ce3565b95508019841693508086168417925050509392505050565b6000819050919050565b6000612d67612d62612d5d84612202565b612d42565b612202565b9050919050565b6000819050919050565b612d8183612d4c565b612d95612d8d82612d6e565b848454612cf0565b825550505050565b600090565b612daa612d9d565b612db5818484612d78565b505050565b5b81811015612dd957612dce600082612da2565b600181019050612dbb565b5050565b601f821115612e1e57612def81612cbe565b612df884612cd3565b81016020851015612e07578190505b612e1b612e1385612cd3565b830182612dba565b50505b505050565b600082821c905092915050565b6000612e4160001984600802612e23565b1980831691505092915050565b6000612e5a8383612e30565b9150826002028217905092915050565b612e7382612150565b67ffffffffffffffff811115612e8c57612e8b6124ec565b5b612e9682546128b0565b612ea1828285612ddd565b600060209050601f831160018114612ed45760008415612ec2578287015190505b612ecc8582612e4e565b865550612f34565b601f198416612ee286612cbe565b60005b82811015612f0a57848901518255600182019150602085019450602081019050612ee5565b86831015612f275784890151612f23601f891682612e30565b8355505b6001600288020188555050505b505050505050565b600081905092915050565b6000612f5282612150565b612f5c8185612f3c565b9350612f6c81856020860161216c565b80840191505092915050565b6000612f848285612f47565b9150612f908284612f47565b91508190509392505050565b7f4552433732313a207472616e736665722066726f6d20696e636f72726563742060008201527f6f776e6572000000000000000000000000000000000000000000000000000000602082015250565b6000612ff860258361215b565b915061300382612f9c565b604082019050919050565b6000602082019050818103600083015261302781612feb565b9050919050565b7f4552433732313a207472616e7366657220746f20746865207a65726f2061646460008201527f7265737300000000000000000000000000000000000000000000000000000000602082015250565b600061308a60248361215b565b91506130958261302e565b604082019050919050565b600060208201905081810360008301526130b98161307d565b9050919050565b7f4552433732313a20617070726f766520746f2063616c6c657200000000000000600082015250565b60006130f660198361215b565b9150613101826130c0565b602082019050919050565b60006020820190508181036000830152613125816130e9565b9050919050565b7f4552433732313a207472616e7366657220746f206e6f6e20455243373231526560008201527f63656976657220696d706c656d656e7465720000000000000000000000000000602082015250565b600061318860328361215b565b91506131938261312c565b604082019050919050565b600060208201905081810360008301526131b78161317b565b9050919050565b7f4e487b7100000000000000000000000000000000000000000000000000000000600052601260045260246000fd5b60006131f882612202565b915061320383612202565b925082820390508181111561321b5761321a612c47565b5b92915050565b600061322c82612202565b915061323783612202565b925082820190508082111561324f5761324e612c47565b5b92915050565b600081519050919050565b600082825260208201905092915050565b600061327c82613255565b6132868185613260565b935061329681856020860161216c565b61329f81612196565b840191505092915050565b60006080820190506132bf6000830187612297565b6132cc6020830186612297565b6132d960408301856123f8565b81810360608301526132eb8184613271565b905095945050505050565b600081519050613305816120c1565b92915050565b6000602082840312156133215761332061208b565b5b600061332f848285016132f6565b91505092915050565b7f4552433732313a206d696e7420746f20746865207a65726f2061646472657373600082015250565b600061336e60208361215b565b915061337982613338565b602082019050919050565b6000602082019050818103600083015261339d81613361565b9050919050565b7f4552433732313a20746f6b656e20616c7265616479206d696e74656400000000600082015250565b60006133da601c8361215b565b91506133e5826133a4565b602082019050919050565b60006020820190508181036000830152613409816133cd565b905091905056fea264697066735822122087919557237d0835f876dd9024382bf86c04a50deb269fdecc1a27a911076d2b64736f6c63430008110033",
  "linkReferences": {},
  "deployedLinkReferences": {}
}